:020000040800F2
:1000000008A700209D010008A1590008D743000857
:100010009D590008C50800083B7F0008000000004B
:1000200000000000000000000000000091630008D4
:10003000BD0A000800000000BB5A0008396400082F
:10004000B7010008B7010008B7010008B7010008B0
:10005000B7010008B7010008B7010008B7010008A0
:10006000B7010008B7010008B7010008B701000890
:10007000B7010008B7010008B7010008B701000880
:10008000B7010008B7010008B7010008B701000870
:10009000B7010008B7010008B7010008C10A00084D
:1000A000B7010008B7010008B70100085D65000846
:1000B000B70100086D650008B7010008B701000826
:1000C000B7010008B7010008B7010008B701000830
:1000D000B7010008B7010008B7010008B701000820
:1000E000B7010008B7010008B7010008B701000810
:1000F000B7010008B7010008B7010008B701000800
:10010000B7010008B7010008B7010008B7010008EF
:10011000B7010008B7010008B7010008B7010008DF
:10012000B7010008B7010008B7010008B7010008CF
:10013000B7010008B7010008B7010008B7010008BF
:10014000B7010008B7010008B7010008F15900081D
:10015000B7010008B7010008B7010008B70100089F
:10016000ED430008DD430008B7010008B7010008AF
:10017000B7010008B7010008B7010008000000003F
:10018000B7010008B7010008DFF80CD000F070F8E4
:1001900000480047B596000808A700200648804799
:1001A00006480047FEE7FEE7FEE7FEE7FEE7FEE75C
:1001B000FEE7FEE7FEE7FEE70D650008890100089F
:1001C00040EA01039B0703D009E008C9121F08C0D9
:1001D000042AFAD203E011F8013B00F8013B521E59
:1001E000F9D27047D2B201E000F8012B491EFBD2D0
:1001F00070470022F6E710B513460A460446194632
:10020000FFF7F0FF204610BD2DE9F05F0546002006
:1002100092469B4688460646814640241BE0284677
:1002200041464746224600F044F853465A46C01A13
:10023000914110D311461846224600F02BF82D1A92
:1002400067EB01084F4622460120002100F022F80A
:1002500017EB00094E41201EA4F10104DFDC4846E3
:1002600031462A46434600F000B830BCBDE8C09F86
:10027000064C074D06E0E06840F0010394E80700F3
:1002800098471034AC42F6D3FFF782FF209800085D
:1002900040980008202A04DB203A00FA02F10020EE
:1002A00070479140C2F1200320FA03F319439040B4
:1002B0007047202A04DB203A21FA02F0002170471F
:1002C00021FA02F3D040C2F12002914008431946BE
:1002D000704770B58C1810F8015B15F0070301D159
:1002E00010F8013B2A1106D110F8012B03E010F899
:1002F000016B01F8016B5B1EF9D12B0705D40023BC
:10030000521E0DD401F8013BFAE710F8013BCB1A5D
:10031000921C03E013F8015B01F8015B521EF9D552
:10032000A142D8D3002070BD70B504460E46022C01
:1003300002D36FF001051CE00F4850F82400304054
:10034000B04214D104EB44020C4B03EB82020C4B81
:1003500053F8263052F8232011680A4A52F8240034
:10036000884710B16FF0040503E0002501E06FF04D
:100370000105284670BD00002401002084250020CE
:1003800008010020000100202DE9F04104460E463E
:100390001746022C02D36FF001051DE0104850F8FB
:1003A00024003040B04215D104EB44010D4B03EB67
:1003B00081010D4B53F8263051F823100A690B497F
:1003C00051F824003946904710B16FF0040503E05E
:1003D000002501E06FF001052846BDE8F08100002E
:1003E00024010020842500200801002000010020B5
:1003F0002DE9FF4704460F464FF00009012600256E
:1004000014B1012C50D128E0384603F0F3FC20B1A0
:100410004FF0FF3004B0BDE8F0873B4951F82400AD
:100420003A4951F82410CA686946904710B16FF0F4
:100430000600EFE79DF80000012801D145F0010515
:100440009DF80200012801D145F004059DF8010046
:10045000012801D145F0020529E0384604F09EFE4E
:1004600010B14FF0FF30D5E7274951F82400274954
:1004700051F82410CA686946904710B16FF0060021
:10048000C8E79DF80000012801D145F001059DF85D
:100490000200012801D145F004059DF80100012862
:1004A00001D145F0020502E06FF0010900BF00BF75
:1004B000B9F1000F01D04846ACE74FF000081DE04D
:1004C00007EA0600B04216D105EA0600B04212D192
:1004D00004EB44020E4B03EB82020E4B53F8263022
:1004E00052F823201168084A52F82400884710B1B6
:1004F0006FF004008EE7760008F10108B8F1030FF1
:10050000DED3484686E70000000100201C010020E1
:10051000842500200801002010B500F0CBFD10BD9F
:1005200010B56FF00704054803F068FF034800F0BA
:10053000C9FD00B90024204610BD0000F4250020AC
:1005400010B5002409480A490860084600F020FE5A
:1005500050B9074803F06AFF054805F0A7F910B144
:100560006FF0070400E00024204610BD005C00404E
:10057000F42500202DE9FE4304460D4616461F468D
:100580006FF007084FF47A7001232A462146CDE91F
:1005900000670290044800F063FE08B94FF00008BD
:1005A000404600F003B80000F425002006BCBDE87A
:1005B000F88300002DE9FE4304460D4616461F460B
:1005C0006FF007084FF47A70E1B201232A46CDE9B3
:1005D00000670290044800F025FF08B94FF00008BA
:1005E000404600F003B80000F425002006BCBDE83A
:1005F000F883000010B586B0044600BF2048806D27
:1006000040F080501E4988650846806D00F080509B
:10061000009000BF00BF01F0D5FD00BF6CB900BF66
:100620001748C06C40F040001549C8640846C06CCB
:1006300000F04000009000BF00BF012C0DD100BFB2
:100640000F48C06C40F001000D49C8640846C06CFA
:1006500000F00100009000BF00BF00BF094850F843
:1006600024000190012002900020039002200490B9
:10067000054951F8240001A900F00AFC06B010BD9C
:100680000010024018980008F400002010B56FF028
:10069000050400F0DDF800B90024204610BD00007C
:1006A00010B586B06FF00504012208214FF090408C
:1006B00000F0FAFC03200490002003900120029037
:1006C00000BF1048C06C40F001000E49C8640846E5
:1006D000C06C00F00100009000BF00BF0820019036
:1006E00001A94FF0904000F0D3FB012208214FF008
:1006F000904000F0D9FC00F0BBF800B9002420467F
:1007000006B010BD001002402DE9F04782460D46AC
:1007100016461F464FF0000805F0FF09002400BFF1
:1007200038E0002208214FF0904000F0BDFC09EBBA
:100730000400C0B240F08001194804F083FF18485B
:100740000068006820F040001549096808601448F6
:100750000068006820F48040114909680860311978
:100760000F4804F04BFF012208214FF0904000F0A9
:100770009BFC0B480068006840F480400849096809
:10078000086007480068006840F0400004490968B4
:100790000860641CBC42C4DB4046BDE8F087000032
:1007A000402600202DE9F84380460D4616461C469B
:1007B0000027E8B20090002208214FF0904000F09E
:1007C00073FC0121684600F06BF8012800D0BF1FC0
:1007D0002146304600F064F8A04201D06FF00507D2
:1007E000012208214FF0904000F05EFC3846BDE841
:1007F000F883000010B5002408480949086008463D
:1008000002F027FC40B9064805F06CFC044805F0EE
:1008100063F808B16FF00704204610BD00300140B6
:10082000A4260020F8B505460E4614466FF00507CD
:100830004FF47A702346324629460090034802F06E
:100840004AFD00B927463846F8BD0000A42600201E
:1008500010B56FF00704054805F076FC034802F078
:10086000DDFB00B90024204610BD0000402600201A
:1008700010B50024084809490860084602F0E9FB61
:1008800040B9064805F072FC044805F04DF808B17F
:100890006FF00704204610BD0038004040260020BD
:1008A00070B505460C466FF005064FF47A73224684
:1008B0002946034802F033FC00B92646304670BD95
:1008C0004026002000BFFEE730B502460B4600215F
:1008D0000DE0505C084C094D2D68605507480088B4
:1008E000401CC0F30A00054C2060481C81B29942AC
:1008F000EFD3002030BD0000900D00204C00002000
:1009000010B50346042B15D007DC7BB1012B0ED0AC
:10091000022B0DD0032B3CD10BE0202B0BD0212B35
:100920001CD0222B33D0232B33D131E032E031E005
:1009300030E02FE02EE008784C7840EA04208C78F4
:1009400040EA0440CC7840EA0460144C2060087906
:100950002071487960718879A0711BE00F48007898
:1009600008700E480088000A48700C480068000CA7
:1009700088700A480068000EC8700848007908713D
:1009800006484079487105488079887102E001E0A5
:1009900000E000BF00BF002010BD000040000020AC
:1009A0000020704708B500BF1348806D40F0080074
:1009B000114988650846806D00F00800009000BF6E
:1009C00000BF00220621322000F055FE322000F048
:1009D00045FE00F01FF8094802F03CFE08B100F0A7
:1009E00017F900220649074806F0CBF806490548E2
:1009F00006F0C0F8002008BD00100240901D002045
:100A0000900D0020F40200209005002002460020F6
:100A10007047000010B50A480A49086041F2873162
:100A20000848C1604F20074948600021054801611E
:100A3000816002F0B6FD08B100F0EAF810BD0000D8
:100A4000000C0040901D002070B506461748006855
:100A500017490968884227D0144800681449096872
:100A6000884204D911480068C0F5006404E01048C9
:100A700000680E490968441A0C480568A2B20D487E
:100A800041190D4806F07DF80B4806F084F858B976
:100A90000648006820440549086008460068B0F52B
:100AA000006F01D10020086070BD000050000020E0
:100AB0004C000020900D0020F40200207047000040
:100AC00010B5024800F012F910BD00009C21002072
:100AD0002DE9F047C4B005460F4690461E4600F08B
:100AE000E9FAC0F3C7008DF8040100F0E3FAC00A88
:100AF0008DF8050102243648406970B141A90D55B1
:100B0000280A21444870280C41A921448870280EE5
:100B100041A92144C870201DC4B22D48806930B15C
:100B200041A90F55381221444870A01CC4B228486E
:100B30008068022810D141A901F804804FEA1820EA
:100B400021444870A01CC4B241A90E55300A21446A
:100B50004870A01CC4B20AE01D488068012806D174
:100B600041A90E55300A21444870A01CC4B241A8C6
:100B70000090184803780022174801881748008819
:100B800007F070FE8146B9F1000F1ED014480088AE
:100B9000C0F3402058B113A11B4807F019FA1B49B4
:100BA000086008460178184805F0F4FB09E00DA13B
:100BB00001A807F00DFA8246514601A8FFF784FE0E
:100BC00000BF472044B0BDE8F0870020FAE70000EE
:100BD000C00200203800002028000020260000204D
:100BE000000000204572726F722055706461746954
:100BF0006E6720456E7669726F6E6D656E74616C9E
:100C000020436861720D0A003001002004000020BA
:100C100000BFFEE70122044B1A60044A1180002243
:100C2000034B1A6070470000200000203A000020AB
:100C30000000002010B50020074908600120074986
:100C400008700020064908600021064802F078FE7E
:100C500008B1FFF7DDFF10BD2000002024000020B8
:100C6000000000203002002070B50446002594F8F2
:100C70002500022803D00420E06301251EE020683F
:100C8000006820F00E00216808602068006820F0ED
:100C900001002168086094F8441001208840216C0C
:100CA0004860012084F8250000BF002084F824005B
:100CB00000BFA06B10B12046A16B8847284670BDCD
:100CC00031B5002400F0F6F9044600E030BF00F032
:100CD000F1F9001B00998842F8D338BD02460AB9E1
:100CE0000120704711600020FBE7000070B504464A
:100CF000207800F01F06012000FA06F5074800687A
:100D0000284048B105480560606808B160688047C0
:100D1000A06808B1A068804770BD000014040140BD
:100D200010B50346002021B1012905D0022907D1C1
:100D300004E05A609A6005E05A6003E09A6001E0BE
:100D4000012000BF00BF10BDF0B50B4600210022FE
:100D5000002487E001258D4005EA0302002A7DD0AA
:100D600005684F000326BE4035430560CE0800F1FC
:100D7000200555F826504E07F70E0F26BE40B54306
:100D8000CF0800F1200646F8275085684F0003265B
:100D9000BE40B5438560466801258D40AE43466040
:100DA000C5684F000326BE40B543C560C66A01252D
:100DB0008D40AE43C6622E4D8E0855F826408D07F5
:100DC0002E0F0F25B5402C40B0F1904F01D10025DA
:100DD0001EE0284DA84201D1012519E0264DA84268
:100DE00001D1022514E0254DA84201D103250FE0D1
:100DF000234DA84201D104250AE0224DA84201D189
:100E0000052505E0204DA84201D1062500E0072573
:100E10008E07360FB540A54223D18D072E0F0F2523
:100E200005FA06F4124D8E0855F82650A543104ECB
:100E30008F0846F82750154D2D689543134E3560A1
:100E4000351D2D689543361D3560351D2D6895433C
:100E5000361D3560351D2D68954300E001E0361DD7
:100E60003560491C23FA01F5002D7FF473AFF0BD06
:100E7000080001400004004800080048000C004839
:100E80000010004800140048001800480004014009
:100E900078B50346002200240020E5E001269640B4
:100EA0000D6805EA0604002C7DD04D68022D02D0A5
:100EB0004D68122D13D1D60803F1200555F82600F0
:100EC0005507EE0E0F25B540A8435607F60E0D69DF
:100ED000B5402843D60803F1200545F826001868D8
:100EE00056000325B540A8430D7905F003055600CB
:100EF000B540284318604D68012D08D04D68022D7B
:100F000005D04D68112D02D04D68122D13D198686F
:100F100056000325B540A8435600CD68B540284388
:100F20009860586801259540A8430D79C5F30015D0
:100F30009540284358600D7905F00305032D09D12C
:100F4000D86A01259540A8430D79C5F3C0059540A1
:100F50002843D862D86856000325B540A8435600F8
:100F60008D68B5402843D8604D6805F08055B5F1CF
:100F7000805F78D100BF3F4D2D6E45F001053D4E9D
:100F8000356635462D6E05F00105009500BF00BFA2
:100F90004FEAB635960855F8260095072E0F0F250F
:100FA000B540A84300E05EE0B3F1904F01D10025C9
:100FB0001EE0314DAB4201D1012519E02F4DAB426E
:100FC00001D1022514E02E4DAB4201D103250FE0E3
:100FD0002C4DAB4201D104250AE02B4DAB4201D18F
:100FE000052505E0294DAB4201D1062500E0072586
:100FF0009607360FB5402843254D960845F826003C
:10100000244D2868A0434D6805F48035B5F5803F30
:1010100000D120431F4D28602D1D2868A0434D6836
:1010200005F40035B5F5003F00D12043194D2D1DC5
:1010300028602D1D2868A0434D6805F48015B5F57E
:10104000801F00D12043134D083528602D1D2868CE
:10105000A0434D6805F40015B5F5001F00D12043ED
:101060000C4D0C352860521C0D68D540002D7FF4C6
:1010700015AF78BD00100240000400480008004889
:10108000000C0048001000480014004800180048F8
:101090000800014000040140024613690B400BB1F7
:1010A000012000E0002070470AB1816100E0816208
:1010B0007047000001480068704700007C00002075
:1010C0007047704710B504460CB9012010BD2420AC
:1010D00084F841002068006820F001002168086061
:1010E000204600F07EFA0020606484F8410020630E
:1010F00084F8420000BF84F8400000BF00BFE5E76D
:1011000070B50446206885692068066805F480701B
:1011100050B106F0800038B1606C40F001006064AE
:101120004FF480702168C86105F4806050B106F00A
:10113000800038B1606C40F0080060644FF480605B
:101140002168C86105F4007050B106F0800038B124
:10115000606C40F0020060644FF400702168C86168
:10116000606C00F00B0018B1616C204603F08EFA41
:1011700070BD70B504462068856920680668606B9C
:1011800020B1324629462046636B984770BD7047B0
:10119000014691F84100704710B504460CB9012092
:1011A00010BD94F8410028B9002084F84000204682
:1011B00000F018FA242084F841002068006820F02C
:1011C000010021680860606820F070602168086193
:1011D0002068806820F4004021688860E068012869
:1011E00005D1A06840F400402168886004E0A06850
:1011F00040F4044021688860E068022802D180023F
:1012000021684860206840681349084321684860A5
:101210002068C06820F400402168C860D4E9040157
:101220000843A16940EA01202168C860D4E90701A8
:101230000843216808602068006840F001002168C8
:10124000086000206064202084F8410000202063B2
:1012500084F8420000BFA3E700800002704700004E
:101260002DE9FC5F0446894692469B46DDE90C78F1
:101270000E9E002594F8410020287DD117B1B8F1C9
:10128000000F02D1012000F0C9B800BF94F840005F
:10129000012801D10220F6E7012084F8400000BFB8
:1012A000FFF708FF054619230122D10320460095C8
:1012B00003F008FD08B10320E5E7222084F841008F
:1012C000402084F84200002060646762A4F82A800D
:1012D00060635B46524649462046CDE9006503F00F
:1012E000A7FB80B1606C042806D100BF002084F801
:1012F000400000BF0120C6E700BF002084F8400086
:1013000000BF0320BFE7608DFF280CD9FF20208598
:101310004048009094F828204FF0807349462046BA
:1013200003F0B6FC0BE0608D20853A48009094F8FD
:1013300028204FF000734946204603F0A9FC00BF67
:101340003346002204212046009503F0BBFC08B17F
:10135000032098E72068406AC1B2626A501C60624C
:101360001170208D401E2085608D401E6085208D6F
:1013700048BB608D38B300E049E03346002280214D
:101380002046009503F09EFC08B103207BE7608DAA
:10139000FF280CD9FF2020850020009094F82820F9
:1013A0004FF080734946204603F072FC0BE0608DDD
:1013B00020850020009094F828204FF000734946C3
:1013C000204603F065FC608D0028B9D12A463146DD
:1013D000204603F0A2FC30B1606C042801D101204A
:1013E00051E703204FE720202168C861206840684A
:1013F0000949084021684860202084F84100002005
:1014000084F8420000BF84F8400000BF3BE70220A0
:1014100039E700000024008000E800FE3CBCBDE885
:10142000C09F00002DE9FC5F0446894692469B461A
:10143000DDE90C780E9E002594F8410020286ED13D
:1014400017B1B8F1000F02D1012000F0C7B800BFFA
:1014500094F84000012801D10220F6E7012084F829
:10146000400000BFFFF726FE054619230122D103E5
:101470002046009503F026FC08B10320E5E7212073
:1014800084F84100402084F84200002060646762D4
:10149000A4F82A8060635B46524649462046CDE95F
:1014A000006503F00DFB80B1606C042806D100BF1D
:1014B000002084F8400000BF0120C6E700BF0020E4
:1014C00084F8400000BF0320BFE7608DFF280CD9DF
:1014D000FF2020850020009094F828204FF0807392
:1014E0004946204603F0D4FB0BE0608D20850020A8
:1014F000009094F828204FF000734946204603F0EE
:10150000C7FB00BF2A463146204603F031FC38B104
:10151000606C042801D1012097E7032095E759E08A
:10152000616A481C6062087821688862608D401E8C
:101530006085208D401E2085208D38BB608D28B3AE
:101540003346002280212046009503F0BBFB08B102
:1015500003207AE7608DFF280CD9FF20208500202A
:10156000009094F828204FF080734946204603F0FD
:101570008FFB0BE0608D20850020009094F82820E0
:101580004FF000734946204603F082FB608D00282F
:10159000B8D12A463146204603F0BFFB30B1606C1B
:1015A000042801D1012050E703204EE720202168C4
:1015B000C8612068406808490840216848602020C8
:1015C00084F84100002084F8420000BF84F8400005
:1015D00000BF3AE7022038E700E800FE3CBCBDE867
:1015E000C09F70477047704770470000024800680E
:1015F000401C0149086070477C00002010B50320A2
:1016000000F07AF80F2000F005F800F017F800203D
:1016100010BD000070B50446074800684FF47A71A9
:10162000B0FBF1F5284601F09CFF00222146501E38
:1016300000F021F8002070BD8000002070470000FD
:1016400000BF00F01F0201219140034A430942F804
:10165000231000BF7047000080E100E000BF00F0F1
:101660001F02012191404209920002F1E022C2F8DA
:10167000001100BF70472DE9F05F80460D46164609
:10168000002704F099F9074639462A46334601F007
:101690000700C0F1070ABAF1040F02D94FF0040A9B
:1016A00001E0C0F1070AD14600F1040ABAF1070FC0
:1016B00002D24FF0000A01E0A0F1030AD4464FF035
:1016C000010A0AFA09FAAAF1010A0AEA020A0AFA5E
:1016D0000CFA4FF0010B0BFA0CFBABF1010B0BEA10
:1016E000030B4AEA0B042146404604F06DF900F072
:1016F00000B830BCBDE8C09F00BF00F00702064B39
:1017000019684FF6FF031940044B0B4343EA0221CB
:10171000014B196000BF70470CED00E00000FA05B6
:10172000704710B50446D4F8C80305F0AAFC10BDF4
:1017300070B504460D46C5EBC50304F13C0101EB51
:101740008301CA682946D4F8C80305F0C7FB70BDF9
:1017500070B504460D46C5EBC50304F5F07101EB09
:101760008301CA682946D4F8C80305F037FC70BD68
:1017700010B50446D4F8C80305F086FC10BD70B55A
:1017800004460D46002605F08000802808D105F0AB
:101790007F00C0EBC00104F13C0000EB810605E0D6
:1017A000C5EBC50104F5F07000EB81060020B070B8
:1017B00005F07F003070C5F3C010707000BF94F862
:1017C0008403012801D1022070BD012084F8840324
:1017D00000BF3146206806F036F900BF002084F8CB
:1017E000840300BF00BFEFE72DE9F04704460D4634
:1017F000174698464FF00009002605F08000802823
:1018000008D105F07F00C0EBC00104F13C0000EB03
:10181000810607E005F07F00C0EBC00104F5F07021
:1018200000EB810605F07F00307005F08000C009F4
:101830007070B76086F8038000BF94F884030128B5
:1018400002D10220BDE8F087012084F8840300BFA4
:101850003146206805F098FF00BF002084F884031B
:1018600000BF4846EEE72DE9F04104460E46174614
:101870009846002506F07F00C0EBC00104F5F0702B
:1018800000EB8105EF60C5F814800020A861687046
:1018900006F07F00287006F07F0028B9227C2946D8
:1018A000206805F0F5FF04E0227C2946206806F058
:1018B00055F90020BDE8F08170B504460D460026BC
:1018C00005F08000802808D105F07F00C0EBC00142
:1018D00004F13C0000EB810605E0C5EBC50104F511
:1018E000F07000EB81060120B07005F07F003070D1
:1018F000C5F3C010707000BF94F88403012801D1B3
:10190000022070BD012084F8840300BF31462068A6
:1019100006F0DDF805F07F0028B9217C04F562723D
:10192000206806F077F800BF002084F8840300BF29
:1019300000BFE6E72DE9F04104460E4617469846FB
:10194000002506F07F00C0EBC00104F13C0000EB75
:101950008105EF60C5F814800020A861012068703F
:1019600006F07F00287006F07F0028B9227C294607
:10197000206805F08DFF04E0227C2946206806F0EF
:10198000EDF80020BDE8F0812DE9FC5F04462668F3
:101990004FF0000B0020019081460025009080460A
:1019A0008246FE4F206806F045FA00287DD1206867
:1019B00006F07BFA08B900F0ABBB206806F075FAB8
:1019C00000F00200022805D12068406900F0020002
:1019D00021684861206806F068FA00F40020B0F53C
:1019E000002F72D10025206806F032FA0190CEE077
:1019F000019800F00100002868D0E9B2206806F0E4
:101A000049FA814609F0010000285DD0012106F560
:101A1000306000EB45108160306CE149884256D15E
:101A2000D6F8080B00F40040F0BB206901282BD148
:101A3000C5EBC50104F5F07000EB8100816806F587
:101A4000306000EB45100069C0F31200091AC5EBC5
:101A5000C50204F5F07000EB82008161C5EBC501A1
:101A600004F5F07000EB8100C5EBC502C16804F518
:101A7000F07000EB820080680144C5EBC50204F5FC
:101A8000F07000EB8200C160E9B22046FFF760FE13
:101A90002069012811D13DB9C5EBC50104F5F070ED
:101AA00000EB8100406901E007E01BE328B904F581
:101AB00062720121206805F0ADFFD6F8081B48F2DC
:101AC00020000143C6F8081B46E064E05BE02069A3
:101AD00001282BD1C5EBC50104F5F07000EB8100A6
:101AE000816806F5306000EB45100069C0F3120014
:101AF000091AC5EBC50204F5F07000EB82008161A4
:101B0000C5EBC50104F5F07000EB8100C5EBC50223
:101B1000C16804F5F07000EB820080680144C5EBF9
:101B2000C50204F5F07000EB8200C160E9B2204606
:101B3000FFF70EFE206901280ED16DB9C5EBC50176
:101B400004F5F07000EB8100406928B904F5627279
:101B50000121206805F05EFF09F00800082808D17F
:101B6000204600F01FFB082106F5306000EB451011
:101B7000816009F01000102805D1102106F53060B1
:101B800000EB451081606D1C0198400801900198A0
:101B900000287FF42DAF206806F087F900F480203C
:101BA000B0F5802F7DD1206806F049F9019000251D
:101BB00085E0019800F0010000287CD0E9B220689F
:101BC00006F04FF9814609F00100E8B30120A84072
:101BD000009040F6340080590099884340F6340163
:101BE0008851012106F5106000EB451081602069E5
:101BF000012815D1C5EBC50104F13C0000EB8100C3
:101C0000C5EBC502C16804F13C0000EB82008068AE
:101C10000144C5EBC50204F13C0000EB8200C16049
:101C2000E9B22046FFF784FD2069012810D15DB993
:101C3000C5EBC50104F13C0000EB8100406918B917
:101C400004F56272012100E002E0206805F0E2FE86
:101C500009F00800082805D1082106F5106000EBFE
:101C60004510816009F01000102805D1102106F5FB
:101C7000106000EB4510816009F04000402805D15C
:101C8000402106F5106000EB4510816009F002006C
:101C9000022805D1022106F5106000EB4510816095
:101CA00001E010E007E009F08000802803D1294618
:101CB000204603F0A5FE6D1C019840080190019894
:101CC00000287FF476AF206806F0EFF800F00040BF
:101CD000B0F1004F1CD140F60400805920F0010102
:101CE00040F60400815194F8B803012807D1002080
:101CF00084F8B80300212046FFF712FD02E02046D9
:101D000000F027FA2068406900F00040216848612F
:101D1000206806F0CAF800F40060B0F5006F0ED13C
:101D200040F60800805900F0010010B1204600F094
:101D300042FA2068406900F4006021684861206828
:101D400006F0B3F800F00060B0F1006F19D1206820
:101D5000406900F000602168486194F8B80368B9F0
:101D6000012084F8B8032068406DC0F38300C4F8F4
:101D7000BC0301212046FFF7D3FC02E0204600F01F
:101D80001AFA206806F091F800F48050B0F5805FF0
:101D900062D140F60400805904E0000000B4C4049D
:101DA0000A31544F20F0010140F604008151102106
:101DB000206806F027F84FF0000B0CE0FF2106F535
:101DC000106000EB4B10816006F5306000EB4B10AB
:101DD00081600BF1010B60685845EFD84FF0FF317F
:101DE00040F618008151001D805940F0011140F665
:101DF0001C008151206B70B1D6F8840840F00B01B3
:101E0000C6F8841840F64400805940F00B0140F6B3
:101E1000440081510EE040F61400805940F00B015F
:101E200040F614008151001F805940F00B014FF41F
:101E300001608151D6F8000820F4FE60C6F8000861
:101E4000217C04F56272206805F0E4FD2068406999
:101E500000F4805021684861206806F026F800F4FC
:101E60000050B0F5005F77D1206805F0EFFC2068E6
:101E7000C06820F470502168C8600321E1604021EF
:101E8000616100F02DFD07469748874209D39748C6
:101E9000874206D22068C06840F470502168C8604C
:101EA0006EE09248874209D39148874206D2206863
:101EB000C06840F460502168C86061E08C48874287
:101EC00009D38C48874206D22068C06840F450503D
:101ED0002168C86054E08748874209D38648874212
:101EE00006D22068C06840F440502168C86047E0CE
:101EF0008148874209D38148874206D22068C0685A
:101F000040F430502168C8603AE07C48874209D3E9
:101F10007B48874206D22068C06840F42050216880
:101F2000C8602DE07648874209D37648874206D2BA
:101F30002068C06840F410502168C86020E07148F3
:101F400087420AD37048874207D22068C06840F4AD
:101F500000502168C86013E01BE06B48874209D33A
:101F60006A48874206D22068C06840F4E050216881
:101F7000C86005E02068C06840F4C0502168C860AF
:101F8000204600F0DAF82068406900F4005021682B
:101F90004861206805F089FF00F01000102845D145
:101FA0002068806920F0100021688861D6F82080C0
:101FB00008F00F00C0EBC00104F5F07000EB810ADF
:101FC000C8F3434002281AD147F6F07008EA00002F
:101FD00030B3C8F30A123046DAF80C1005F06BFF84
:101FE000C8F30A11DAF80C000844CAF80C00C8F368
:101FF0000A11DAF818000844CAF8180010E0C8F30B
:10200000434006280CD1082204F56271304605F0E1
:1020100052FFC8F30A11DAF818000844CAF8180089
:102020002068806940F0100021688861206805F010
:102030003CFF00F00800082808D1204600F090F886
:102040002068406900F0080021684861206805F0B8
:102050002CFF00F48010B0F5801F09D1E9B22046B2
:1020600000F059F82068406900F480102168486148
:10207000206805F01AFF00F40010B0F5001F09D128
:10208000E9B2204600F050F82068406900F40010E2
:1020900021684861206805F008FF00F08040B0F139
:1020A000804F08D12046FFF73CFB2068406900F0D4
:1020B000804021684861206805F0F7FE00F00400C8
:1020C00004280FD12068D0F8048008F00400042808
:1020D00002D12046FFF74CFB2068406840EA080028
:1020E0002168486000BF66E4C0ACD800C0E1E400ED
:1020F0000024F40080730601A0491A01002D31016B
:1021000040A44C0100366E0120ABA6010048E80156
:102110003CBCBDE8C09F70B504460D462946D4F8C6
:10212000C80304F0DAFF70BD70B504460D462946B9
:10213000D4F8C80304F0D4FF70BD10B50446D4F839
:10214000C80304F0F0FF0121D4F8C80305F031F80A
:1021500010BD10B50446D4F8C80305F012F810BD40
:1021600010B50446D4F8C80305F012F810BD70B5D8
:1021700004460D4600BF94F88403012801D10220D3
:1021800070BD012084F8840300BF84F838502946CC
:10219000206805F0A4FE00BF002084F8840300BF7F
:1021A00000BFEDE710B5044604F56271D4F8C8032A
:1021B00005F00DF810BD10B50446D4F8C80305F0BD
:1021C00047F810BD0348406840F40070014948607A
:1021D00070470000007000400248006800F4C060D2
:1021E00070470000007000400348006840F48070B1
:1021F0000149086070470000007000400648006810
:1022000020F0200004499039C1F890000846806908
:1022100020F4007088617047901002400348006805
:1022200040F00400014908607047000000100240BF
:102230002DE9F8430446002600270025A8462088FB
:1022400000F40060B0F5006F30D1606E80B1B0F581
:10225000800F13D0B0F5000F03D0B0F5400F15D1AB
:1022600013E0FA48C06840F48030F849C8600FE0D5
:102270000021201D03F022FC054609E0002104F1A5
:10228000200003F0E1FC054602E001E0012500BF6B
:1022900000BF55B9ED488830006820F44000616EF9
:1022A0000843EA49C1F8880000E0A846208800F405
:1022B0008050B0F5805F30D1A06E80B1B0F1807FEA
:1022C00013D0B0F1007F03D0B0F1407F15D113E0FF
:1022D000DE48C06840F48030DC49C8600FE000216F
:1022E000201D03F0EBFB054609E0002104F120006E
:1022F00003F0AAFC054602E001E0012500BF00BF93
:1023000055B9D2488830006820F04070A16E08436B
:10231000CE49C1F8880000E0A846206800F40030EB
:10232000B0F5003F76D14FF00009C848806D00F04D
:10233000805078B900BFC548806D40F08050C349D7
:1023400088650846806D00F08050009000BF00BF97
:102350004FF00109BE48006840F48070BC49086035
:10236000FEF7A8FE074606E0FEF7A4FEC01B022803
:1023700001D9032505E0B648006800F48070002804
:10238000F2D000BF85BBB1489030006800F44076C1
:10239000D6B1D4F88400B04216D0AC489030006872
:1023A00020F44076A948D0F8900040F48030A74946
:1023B000C1F890000846D0F8900020F48030C1F8B1
:1023C00090000846C0F8906006F00100A8B1FEF742
:1023D00071FE074609E0FEF76DFEC01B41F2883131
:1023E000884202D9032507E017E09848903000683A
:1023F00000F002000028EED000BF65B9934890308D
:10240000006820F44070D4F8841008438F49C1F864
:10241000900003E00CE0A84600E0A846B9F1010FE7
:1024200005D18A48806D20F080508849886500BFBA
:10243000207800F0010048B184488830006820F01E
:102440000300A16B08438149C1F88800207800F09F
:102450000200022809D17D488830006820F00C0075
:10246000E16B08437949C1F88800207800F0040046
:10247000042809D175488830006820F03000216CAC
:1024800008437249C1F88800207800F00800082845
:1024900009D16E488830006820F0C000616C0843A4
:1024A0006A49C1F88800207800F01000102809D18E
:1024B00066488830006820F44070A16C0843634986
:1024C000C1F88800207800F02000202809D15F485A
:1024D0008830006820F44060E16C08435B49C1F833
:1024E0008800208800F40070B0F5007F09D15748BB
:1024F0008830006820F44020E16D08435349C1F85A
:102500008800208800F48060B0F5806F09D14F48C2
:102510008830006820F44010216E08434B49C1F810
:102520008800207800F04000402809D147488830D2
:10253000006820F44050216D08434449C1F88800E8
:10254000207800F08000802809D140488830006859
:1025500020F44040616D08433C49C1F88800208860
:1025600000F48070B0F5807F09D138488830006869
:1025700020F44030A16D08433449C1F88800208818
:1025800000F40050B0F5005F1FD13048883000687B
:1025900020F04060E16E08432C4988310860E06E0D
:1025A000B0F1006F06D12948C06840F48010274977
:1025B000C8600AE0E06EB0F1806F06D10121201DF5
:1025C00003F07CFA054605B1A846206800F4002017
:1025D000B0F5002F1FD11D488830006820F0406002
:1025E000216F0843194988310860206FB0F1006FEE
:1025F00006D11648C06840F480101449C8600AE04B
:10260000206FB0F1806F06D10121201D03F056FA32
:10261000054605B1A846206800F48020B0F5802F5B
:1026200023D10A488830006820F04060616F084379
:10263000064988310860606FB0F1006F0AD1034825
:10264000C06840F480100149C8600EE000100240EC
:1026500000700040606FB0F1806F06D10121201D35
:1026600003F02CFA054605B1A846208800F4804006
:10267000B0F5804F1FD12248006820F04050A16F74
:1026800008431F490860A06FB0F1805F07D10221A5
:10269000201D03F013FA05466DB1A8460BE0A06FAC
:1026A000B0F1005F07D1022104F1200003F0CCFA61
:1026B000054605B1A846208800F40040B0F5004F5B
:1026C00009D10F48006820F08040E16F08430C49B1
:1026D0008839C1F88800206800F48030B0F5803F68
:1026E0000AD10748006820F00040D4F88010084361
:1026F00003498839C1F888004046BDE8F8830000E6
:102700008810024070B504460D46002670480068E7
:1027100000F00700A8420ED26D48006820F00700C4
:1027200028436B4908600846006800F00700A8428B
:1027300001D0012070BD207800F00100002879D080
:102740006068032806D16348006800F00070D8B9BB
:102750000120EFE76068022806D15E48006800F4B7
:10276000003088B90120E5E7606830B95948006851
:1027700000F0020040B90120DCE75648006800F490
:10278000806008B90120D5E75248806820F0030036
:10279000616808434F498860FEF78CFC0646606814
:1027A000032810D108E0FEF785FC801B41F2883138
:1027B000884201D90320BDE74648806800F00C003C
:1027C0000C28F0D136E06068022810D108E0FEF74E
:1027D00071FC801B41F28831884201D90320A9E7AE
:1027E0003C48806800F00C000828F0D122E06068C6
:1027F00080B908E0FEF75EFC801B41F28831884218
:1028000001D9032096E73348806800F00C000028C7
:10281000F0D10FE008E0FEF74DFC801B41F288315B
:10282000884201D9032085E72A48806800F00C001F
:102830000428F0D1207800F00200022807D12548B2
:10284000806820F0F000A168084322498860204891
:10285000006800F00700A8420ED91D48006820F06B
:10286000070028431A4908600846006800F007007E
:10287000A84201D001205DE7207800F00400042880
:1028800007D11448806820F4E060E16808431149EA
:102890008860207800F00800082808D10D4880687A
:1028A00020F46050216940EAC1000A49886000F0C4
:1028B0001DF808498968C1F30311074A515CC840F3
:1028C000064908600F20FEF7A5FE002032E7000051
:1028D0000020024000100240D09700088000002035
:1028E000014800687047000080000020F0B500211A
:1028F000002300240225022200203B4EB66806F089
:102900000C065EB1384EB66806F00C060C2E1ED1D1
:10291000354EF66806F00306012E18D1324E3668A1
:1029200006F008062EB9304E94363668C6F30321F9
:1029300003E02D4E3668C6F303112C4E56F82110D5
:10294000294EB66806F00C0686B908460EE0264EFB
:10295000B66806F00C06042E01D1254806E0224E8A
:10296000B66806F00C06082E00D122481E4EB66846
:1029700006F00C060C2E36D11B4EF66806F003044A
:10298000194EF668C6F30216721C012C19D0022CDF
:1029900002D0032C14D109E0154EB6FBF2F6124F0B
:1029A000FF68C7F3062706FB07F313E0114EB6FBDB
:1029B000F2F60D4FFF68C7F3062706FB07F309E0A1
:1029C00000BFB1FBF2F6084FFF68C7F3062706FB0E
:1029D00007F300BF00BF044EF668C6F34166761CDD
:1029E0007500B3FBF5F0F0BD00100240E897000859
:1029F0000024F40000127A00F8B50446002520787F
:102A000000F0100010286ED1F848806800F00C002B
:102A1000002869D1F548006800F0020018B1A069EB
:102A200008B90120F8BDF148216A006800F00800EB
:102A300020B1EE48006800F0F00005E0EB4894306B
:102A4000006800F47060000981421FD9206A03F019
:102A5000ADF908B10120E5E700BFE448006840F0A7
:102A60000800E24908600846006820F0F000216A8A
:102A70000843DE49086000BF0846406820F47F40F4
:102A8000E16940EA0120D94948601EE000BFD7480B
:102A9000006840F00800D54908600846006820F04A
:102AA000F000216A0843D149086000BF0846406829
:102AB00020F47F40E16940EA0120CC494860206A67
:102AC00003F074F908B10120ACE7FFF70FFFC74925
:102AD0008968C1F30311C64A515CC840C549086002
:102AE0000F20FEF797FD4AE0A06980B3BF48006859
:102AF00040F00100BD490860FEF7DCFA054606E03B
:102B0000FEF7D8FA401B022801D903208AE7B7480C
:102B1000006800F002000028F2D000BFB34800684F
:102B200040F00800B14908600846006820F0F00055
:102B3000216A0843AD49086000BF0846406820F498
:102B40007F40E16940EA0120A849486017E0FFE7BB
:102B5000A648006820F00100A4490860FEF7AAFA20
:102B6000054606E0FEF7A6FA401B022801D903201D
:102B700058E79E48006800F002000028F2D1207853
:102B800000F00100002868D09848806800F00C0030
:102B900008280BD09548806800F00C000C280ED156
:102BA0009248C06800F00300032808D18F480068ED
:102BB00000F4003088B3606878BB012032E700BFC2
:102BC0006068B0F5803F06D18848006840F48030E6
:102BD000864908601AE06068B0F5A02F0BD18348E1
:102BE000006840F48020814908600846006840F48D
:102BF000803008600AE07D48006820F480307B491E
:102C000008600846006820F48020086000BF606803
:102C100090B1FEF74FFA054607E01EE0FEF74AFACC
:102C2000401B642801D90320FCE67048006800F4CA
:102C300000300028F2D010E0FEF73CFA054606E02E
:102C4000FEF738FA401B642801D90320EAE66748FA
:102C5000006800F400300028F2D1207800F0020073
:102C600002285ED16148806800F00C0004280BD077
:102C70005E48806800F00C000C2818D15B48C068E2
:102C800000F00300022812D15848006800F4806068
:102C900018B1E06808B90120C4E65448406820F043
:102CA000F850217C40EA01605049486039E0E06812
:102CB00000B34E48006840F480704C490860FEF74D
:102CC000F9F9054606E0FEF7F5F9401B022801D99F
:102CD0000320A7E64548006800F480600028F2D091
:102CE0004248406820F0F850217C40EA01603F49AA
:102CF000486016E03D48006820F480703B49086059
:102D0000FEF7D8F9054606E0FEF7D4F9401B022885
:102D100001D9032086E63548006800F48060002869
:102D2000F2D1207800F00800082836D16069D0B1CF
:102D30002E489430006840F001002C49C1F89400FE
:102D4000FEF7B8F9054606E0FEF7B4F9401B022885
:102D500001D9032066E625489430006800F002009F
:102D60000028F1D019E021489430006820F00100DB
:102D70001E49C1F89400FEF79DF9054606E0FEF7EE
:102D800099F9401B022801D903204BE617489430DB
:102D9000006800F002000028F1D1207800F0040063
:102DA00004286ED100261148806D00F0805070B963
:102DB00000BF0E48806D40F080500C498865084681
:102DC000806D00F08050009000BF00BF01260A48CF
:102DD000006800F48070F0B90748006840F4807023
:102DE00005490860FEF766F905460EE0001002404E
:102DF000D09700088000002000700040FEF75AF9CC
:102E0000401B022801D903200CE68148006800F429
:102E100080700028F2D000BFA068012808D17D484A
:102E2000006840F001007B499039C1F8900021E032
:102E3000A06805280FD17748006840F00400754964
:102E40009039C1F890000846D0F8900040F0010099
:102E5000C1F890000EE06F48006820F001006D4955
:102E60009039C1F890000846D0F8900020F0040096
:102E7000C1F8900000BFA068A0B1FEF71BF905469D
:102E800009E02DE0FEF716F9401B41F28831884237
:102E900001D90320C6E55F48006800F00200002861
:102EA000F0D012E0FEF706F9054608E0FEF702F959
:102EB000401B41F28831884201D90320B2E55548D0
:102EC000006800F002000028F0D1012E07D151481F
:102ED0009038806D20F080504E499039886500BF51
:102EE000A06AE8B34B489038806800F00C000C28CA
:102EF00079D0A06A022853D146489038006820F063
:102F00008070444990390860FEF7D4F8054606E021
:102F1000FEF7D0F8401B022801D9032082E53D4886
:102F20009038006800F000700028F1D1206B401E3E
:102F30000101606B41EA0021A06B000941EA4040B9
:102F4000E16A0843A18F0122C2EB510140EA4151DD
:102F50004020005DC2EB500041EA40602D4900E096
:102F600053E09039C8600846006840F080700860FF
:102F70000846C06840F08070C860FEF79BF80546C0
:102F800006E0FEF797F8401B022801D9032049E527
:102F900020489038006800F000700028F1D034E03C
:102FA0001C489038006820F080701A4990390860F9
:102FB0000846006800F0006048B90846006800F064
:102FC000005020B90846C06820F00300C8601148CE
:102FD0009038C068104908400E499039C860FEF723
:102FE00069F8054607E00EE0FEF764F8401B02288A
:102FF00001D9032016E507489038006800F00070FA
:103000000028F1D101E001200CE500200AE50000D4
:103010000070004090100240FFFFEEFE10B5044625
:103020000CB9012010BD022084F85D002068006802
:1030300020F0400021680860204600F06EF8002073
:10304000206684F85D0000BF84F85C0000BF00BF0C
:10305000E8E7014691F85D00704770B504460CB989
:10306000012070BD606A00B900BF0021A16294F820
:103070005D0028B9002084F85C00204600F04EF87E
:10308000022084F85D002068006820F0400021687C
:103090000860E068B0F5E06F01D9002501E04FF469
:1030A0008055E068B0F5706F05D0E068B0F5E06F6E
:1030B00001D00021A162206B40B9E068B0F5E06F5B
:1030C00002D90221216301E001212163D4E9010138
:1030D00008432169084361690843218B01F40071A9
:1030E0000843E1690843216A0843A16A084321684B
:1030F00008600421A06901EA1040616A0843616B1D
:103100000843E1680843284321684860002020669E
:10311000012084F85D000020A3E7704770472DE987
:10312000F84304460D4617461E464FF00008C146B8
:1031300000BF94F85C00012802D10220BDE8F883AA
:10314000012084F85C0000BFFDF7B4FF804694F8CE
:103150005D00012802D04FF00209B2E005B117B9B5
:103160004FF00109ADE0032084F85D0000202066E7
:10317000A563A787E7872064A4F84400A4F8460065
:103180002065E064A068B0F5004F05D120680068B4
:1031900040F48040216808602068006800F040002A
:1031A000402805D02068006840F040002168086091
:1031B000E068B0F5E06F2AD9606810B1E08F0128AF
:1031C00006D128882168C860AD1CE08F401EE087CA
:1031D00019E02068806800F00200022807D12888E2
:1031E0002168C860AD1CE08F401EE0870BE03EB157
:1031F000701C40B1FDF75EFFA0EB0800B04202D3A7
:103200004FF003095DE0E08F0028E2D13FE0606805
:1032100010B1E08F012811D1E08F012807D928884B
:103220002168C860AD1CE08F801EE08706E015F8BD
:10323000010B21680873E08F401EE08724E02068BE
:10324000806800F00200022812D1E08F012807D91F
:1032500028882168C860AD1CE08F801EE08713E0DD
:1032600015F8010B21680873E08F401EE0870BE022
:103270003EB1701C40B1FDF71DFFA0EB0800B0424D
:1032800002D34FF003091CE0E08F0028D7D142465B
:103290003146204602F09EFF08B120202066A0683B
:1032A00050B900BF002000902068C06800902068DE
:1032B0008068009000BF00BF206E08B14FF0010988
:1032C00000BF012084F85D0000BF002084F85C008E
:1032D00000BF484632E72DE9FC5F04460D4616461E
:1032E0001F46DDF830804FF0000A00200190814633
:1032F0004FF0010B009000BF94F85C00012802D150
:10330000022000F02AB9012084F85C0000BFFDF71C
:10331000D1FE814694F85DA060680190BAF1010F7A
:103320000BD00198B0F5827F04D1A06810B9BAF132
:10333000040F02D00220009005E10DB106B117B9CB
:1033400001200090FFE094F85D00042802D00520E1
:1033500084F85D00002020662664A4F84670A4F876
:103360004470A563E787A787E0642065E068B0F54F
:10337000E06F03D8B4F84600012806D920684068F9
:1033800020F480502168486005E02068406840F4DF
:103390008050216848602068006800F040004028A4
:1033A00005D02068006840F0400021680860E068AF
:1033B000B0F5E06F47D9606810B1E08F012806D101
:1033C00028882168C860AD1CE08F401EE08732E08D
:1033D000BBF1000F10D0E08F70B12068806800F062
:1033E0000200022808D128882168C860AD1CE08F3F
:1033F000401EE0874FF0000BB4F8460078B120681B
:10340000806800F0010050B12068C0683080B61CB0
:10341000B4F84600401EA4F846004FF0010B08F136
:10342000010040B1FDF746FEA0EB0900404502D384
:103430000320009087E0E08F0028C9D1B4F846004F
:103440000028C5D174E0606810B1E08F012811D167
:10345000E08F012807D928882168C860AD1CE08F5B
:10346000801EE08706E015F8010B21680873E08FE5
:10347000401EE08755E0BBF1000F1BD0E08FC8B1C4
:103480002068806800F00200022813D1E08F012834
:1034900007D928882168C860AD1CE08F801EE087AE
:1034A00006E015F8010B21680873E08F401EE087E5
:1034B0004FF0000BB4F8460038B32068806800F085
:1034C000010010B3B4F84600012813D92068C06881
:1034D0003080B61CB4F84600801EA4F84600B4F84C
:1034E000460001280FD82068406840F480502168C9
:1034F000486008E02068007B06F8010BB4F846003D
:10350000401EA4F846004FF0010B08F1010040B145
:10351000FDF7D0FDA0EB0900404502D30320009049
:1035200011E0E08F0028A6D1B4F846000028A2D10F
:103530004A464146204602F04DFE18B10120009057
:103540002020206600BF012084F85D0000BF00201D
:1035500084F85C0000BF0098D3E63CBCBDE8C09F87
:10356000704770B504462546681EB0F1807F01D3D0
:1035700001200FE0681E4FF0E02148610F214FF05D
:10358000FF3002F021FA00204FF0E021886107208F
:103590000861002070BD10B5FFF7E2FF10BD704755
:1035A000704710B504460CB9012010BD94F83D00D9
:1035B00028B9002084F83C00204600F00DF80220D5
:1035C00084F83D00211D206803F04EF8012084F8A6
:1035D0003D000020E9E7000038B504461A4920689C
:1035E000884216D100BF1948806D40F00400174989
:1035F00088650846806D00F00400009000BF00BFA1
:1036000000220F211E20FEF736F81E20FEF726F8B6
:1036100019E00F492068884215D100BF0B48806D22
:1036200040F00800094988650846806D00F00800F0
:10363000009000BF00BF00220F213220FEF71BF8D0
:103640003220FEF70BF838BD0008004000100240A1
:10365000000C004001460868C06840F001000A689C
:10366000D0600868006840F001000A68106000201F
:103670007047704710B5044620680069C0F34000E9
:10368000D8B12068C068C0F34000B0B16FF002004C
:1036900021680861012020772068806900F003001C
:1036A00018B12046FFF7E5FF05E0204600F0F8F8E6
:1036B000204600F0BDF90020207720680069C0F3A3
:1036C0008000D8B12068C068C0F38000B0B16FF04E
:1036D000040021680861022020772068806900F4D6
:1036E000407018B12046FFF7C4FF05E0204600F007
:1036F000D7F8204600F09CF9002020772068006968
:10370000C0F3C000D8B12068C068C0F3C000B0B139
:103710006FF0080021680861042020772068C069E4
:1037200000F0030018B12046FFF7A3FF05E0204694
:1037300000F0B6F8204600F07BF9002020772068E2
:103740000069C0F30010D8B12068C068C0F3001051
:10375000B0B16FF010002168086108202077206860
:10376000C06900F4407018B12046FFF782FF05E001
:10377000204600F095F8204600F05AF90020207706
:103780002068006900F0010058B12068C06800F0AE
:10379000010030B16FF0010021680861204600F09F
:1037A00049F920680069C0F3C01058B12068C068AA
:1037B000C0F3C01030B16FF080002168086120466E
:1037C000FFF7EDFE20680069C0F3801058B1206853
:1037D000C068C0F3801030B16FF04000216808610C
:1037E000204600F05DF920680069C0F3401058B130
:1037F0002068C068C0F3401030B16FF0200021682D
:1038000008612046FFF7CCFE10BD70B504460E4699
:10381000154600BF94F83C00012801D1022070BD7C
:10382000012084F83C0000BF022084F83D000C2DEC
:103830001AD005DC4DB1042D0CD0082D23D10EE09B
:10384000102D16D0142D1ED118E03146206802F03C
:103850007DFF19E03146206802F0D0FF14E03146C8
:10386000206803F029F80FE03146206803F080F863
:103870000AE03146206803F0B9F805E031462068D7
:1038800003F0EEF800E000BF00BF012084F83D0027
:1038900000BF002084F83C0000BF00BFBFE700006D
:1038A00070B504460025207F01280DD10021204657
:1038B00000F0CCF8054641F28830284403490968F5
:1038C000486301200249086070BD000030020020FA
:1038D0001000002010B504460CB9012010BD94F86A
:1038E0003D0028B9002084F83C00204600F00CF888
:1038F000022084F83D00211D206802F0B5FE012061
:1039000084F83D000020E9E738B5044600BF0B48C5
:10391000006E40F40060094908660846006E00F435
:103920000060009000BF00BF002208211B20FDF7AF
:10393000A2FE1B20FDF792FE38BD000000100240E1
:1039400030B504460D4635B1042D0BD0082D10D0EE
:103950000C2D1CD114E02068C06820F00200216802
:10396000C86015E02068C06820F004002168C860C5
:103970000EE02068C06820F008002168C86007E0F9
:103980002068C06820F010002168C86000E000BF17
:1039900000BF00222946206802F0CAFE1F492068A5
:1039A00088420FD01E49206888420BD01D492068EC
:1039B000884207D01C492068884203D01B492068F0
:1039C000884201D1012000E0002090B100BF2068B2
:1039D000006A41F21111084050B92068006A89104C
:1039E000084028B92068406C20F4004021684864F1
:1039F00000BF00BF2068006A41F21111084050B9B1
:103A00002068006A8910084028B92068006820F002
:103A100001002168086000BF002030BD002C01407B
:103A20000034014000400140004401400048014092
:103A30007047000010B504460348844202D1204676
:103A4000FDF702F810BD0000901D00200246002383
:103A500000BF92F83C00012801D1022070470120EC
:103A600082F83C0000BF31B1042907D0082908D0F2
:103A70000C290CD108E01068436B09E01068836BD7
:103A800006E01068C36B03E01068036C00E000BF41
:103A900000BF00BF002082F83C0000BF1846DDE7F1
:103AA000704700002DE9F04186B0044627467E1C91
:103AB0003878042802D006B0BDE8F08130780528B7
:103AC00004D03E2805D0FF2877D13DE0FDF7B2F8BD
:103AD00073E0B51C2878012802D0022832D108E012
:103AE00005F10108B8F8011008F10500FDF792F89A
:103AF00028E06A78A91C002007E001F109031B5C9B
:103B00000DF1040C0CF80030401C1228F5DB0020ED
:103B10008DF804009DF80900432812D19DF80A0091
:103B200061280ED19DF80B0074280AD12448006842
:103B300080F00100224B18601846006880F00200F7
:103B4000186000BF00BF00BFB51C288840F61242B5
:103B5000811A90422BD007DC042811D0A0F6024035
:103B600020B30E2827D124E0022902D0042922D133
:103B700020E005F10208B8F8020002F0AFF91AE0FF
:103B800005F1020898F804000E494860084608F15B
:103B9000070142680830FCF713FB4FF09040406982
:103BA00080F480404FF09041486104E003E0A81C9D
:103BB00001E000E000BF00BF00BF00BF00BF7AE728
:103BC000140800487002002010B520210648FDF7B7
:103BD000BBF804210548FDF7B7F801210448FDF7BB
:103BE000B3F8002010BD00000008004800040048A1
:103BF000001C004810B586B00446FEF7E3FA00BF8B
:103C00002948C06C40F080002749C8640846C06C51
:103C100000F08000009000BF00BF00BF0846C06CED
:103C200040F00400C8640846C06C00F00400009036
:103C300000BF00BF00BF0846C06C40F00200C8646F
:103C40000846C06C00F00200009000BF00BF0122D7
:103C500004211648FDF728FA20200190144802900C
:103C60000020039001A91348FDF712F901200190EB
:103C7000029000200390049001A90F48FDF708F975
:103C8000042001900120029000200390049001A9DB
:103C90000648FDF7FDF8012204210448FDF704FA67
:103CA000FCF7A8FD06B010BD00100240000400485B
:103CB0000000111000080048001C0048F0B587B053
:103CC00007460E460025FF20069019A103C9CDE93D
:103CD0000301002204211848FDF7E6F9052201A995
:103CE00003A8FCF79FFD9DF80400022818D19DF859
:103CF00007009DF8081040EA0124002C10DDB442B2
:103D000000DD3446002509E0012205A906A8FCF7DC
:103D100089FD9DF814007855681CC5B2A542F3DBF7
:103D2000012204210448FDF7BFF9284607B0F0BD81
:103D30000B000000000000000004004810B5002245
:103D400001210848FDF7B0F90520FCF7B9FF012271
:103D500011460448FDF7A8F90520FCF7B1FF002043
:103D600010BD0000001C00482DE9FF4106460C462E
:103D70001CA103C9CDE90201FDF79CF9074600BF6C
:103D80000025002204211948FDF78EF90522694615
:103D900002A8FCF747FD9DF8000002280CD19DF811
:103DA0000100A04205DB224611493046FCF73AFDEE
:103DB00004E06FF0010501E04FF0FF35012204211E
:103DC0000A48FDF771F9FDF775F9C01B0F2802D9F4
:103DD0006FF0020501E0002DD2DB00BF284604B0E1
:103DE000BDE8F0810A000000000000000004004867
:103DF000A821002030B58DB0044600250020089091
:103E0000BF208DF824003548069035480790354886
:103E10000B9035480A9035480C9006A9344800F0BC
:103E2000E3F908B1ED1F55E005A9314800F0CEF9DE
:103E300010B16FF006054DE09DF81400BC2802D0CB
:103E40006FF0060546E001A9294800F07DF89DF8CD
:103E500004009DF8051040EA41009DF8061040EA74
:103E600081002449086022482349086023482449E6
:103E7000086004F00100A0B19DF80400012810D1F1
:103E8000204821494968214A42F821001A4A10680D
:103E90001B4A12681168884710B16FF0040500E0F2
:103EA000002504F00400042814D19DF80600012820
:103EB00010D1174814490969144A42F821000E4AE2
:103EC00010680F4A12681168884710B16FF0040536
:103ED00000E0002528460DB030BD00004105000877
:103EE0002105000875050008B5050008190500083A
:103EF0009C250020240100200001002084000020D7
:103F00001C010020A80000200801002084250020BA
:103F10009400002010B5044694F8280001280DD123
:103F2000204600F05BF810B14FF0FF3010BD204686
:103F300000F0A7F910B14FF0FF30F7E7002084F848
:103F4000280000BFF2E70000024601208870002030
:103F50004870012008700020C870B2EE090A81ED97
:103F6000010AB2EE090A81ED020A9FED020A81ED13
:103F7000030A704700000000F8B505460C4600260D
:103F8000694605F11C0004F062FF08B1701EF8BD1F
:103F90009DF8000030B1012809D002280CD0032878
:103FA00014D10EE09FED0C0A84ED000A11E0B7EE8B
:103FB000000A84ED000A0CE0B1EE0C0A84ED000A60
:103FC00007E0B2EE090A84ED000A02E04FF0FF3686
:103FD00000BF00BF3046DAE70000000010B504461D
:103FE00094F8290008B9002010BD94F82A0040B9BF
:103FF000002104F11C0004F0B9FF10B14FF0FF30B4
:10400000F2E7002084F8290000BFEDE710B5044670
:1040100094F82900012801D1002010BD94F82A004D
:1040200040B9012104F11C0004F0A0FF10B14FF0D1
:10403000FF30F2E7012084F829000020EDE70000BE
:1040400030B587B004460D4605A904F11C0004F004
:104050004BFF18B14FF0FF3007B030BDBDF9140071
:1040600000EE100AB8EEC00A8DED010A05A904F1B0
:104070001C0004F051FF10B14FF0FF30ECE79DF849
:10408000140000EE100AB8EE400A8DED020A05A9F0
:1040900004F11C0004F034FF10B14FF0FF30DBE7F7
:1040A000BDF9140000EE100AB8EEC00A8DED030A47
:1040B00005A904F11C0004F03EFF10B14FF0FF30E1
:1040C000CAE79DF8140000EE100AB8EE400A8DED24
:1040D000040A0020069006A904F11C0004F03AFF2F
:1040E00010B14FF0FF30B7E7BDF9180000EE900AAD
:1040F000F8EEE00AB0EE600A01A801F0B5FB85ED2C
:10410000000A95ED000AB5EEC00AF1EE10FA03D2EE
:104110009FED090A85ED000A95ED000ADFED070A1B
:10412000B4EEE00AF1EE10FA03DD9FED040A85ED2E
:10413000000A002090E70000000000000000C842D4
:1041400070B504460D4629462046FFF715FF70BDA1
:1041500010B52DED028B0446B0EE408AB0EE480A51
:10416000204600F067F8BDEC028B10BD10B5044688
:1041700094F8280030B9204600F009F810B14FF04B
:10418000FF3010BD012084F828000020F9E710B5A9
:104190000446002104F11C0004F0E8FE10B14FF0C9
:1041A000FF3010BD012104F11C0004F037FE10B1F6
:1041B0004FF0FF30F5E7B7EE000A204600F03AF87E
:1041C00010B14FF0FF30ECE70020EAE770B504468D
:1041D0000D46294604F11C0004F07AFE10B14FF0A0
:1041E000FF3070BD0020FCE770B504460D4614B9E1
:1041F0004FF0FF3019E02968216069686160A968A3
:10420000A160297B21732969216169696161A969BB
:10421000A161064A22620649E1616462216811B126
:104220002168884701E04FF0FF3070BD4D5E000807
:104230003F7F000870B52DED028B0446B0EE408A3A
:10424000B7EE000AB4EEC08AF1EE10FA01D80120F0
:1042500009E0B1EE0C0AB4EEC08AF1EE10FA01D812
:10426000022000E003200546294604F11C0004F06A
:1042700016FE20B14FF0FF30BDEC028B70BD002068
:10428000FAE710B5044694F82A0008B9002010BDDA
:1042900094F8290040B9002104F11C0004F066FEE6
:1042A00010B14FF0FF30F2E7002084F82A0000BF81
:1042B000EDE710B5044694F82A00012801D100204A
:1042C00010BD94F8290040B9012104F11C0004F04C
:1042D0004DFE10B14FF0FF30F2E7012084F82A00C4
:1042E0000020EDE770B504460D4629462046FFF74D
:1042F00043FE70BD30B587B004460D4605A904F1F4
:104300001C0004F05CFE18B14FF0FF3007B030BD68
:10431000BDF9140000EE100AB8EEC00A8DED010AD6
:1043200005A904F11C0004F062FE10B14FF0FF304B
:10433000ECE79DF8140000EE100AB8EE400A8DED8F
:10434000020A05A904F11C0004F045FE10B14FF06B
:10435000FF30DBE7BDF9140000EE100AB8EEC00A2A
:104360008DED030A05A904F11C0004F060FE10B1F4
:104370004FF0FF30CAE79DF8140000EE100AB8EEC7
:10438000400A8DED040A0020069006A904F11C00E5
:1043900004F06DFE10B14FF0FF30B7E7BDF9180023
:1043A00000EE900AF8EEE00AB0EE600A01A801F013
:1043B0005BFA85ED000A0020A8E710B52DED028B11
:1043C0000446B0EE408AB0EE480A2046FFF732FFBE
:1043D000BDEC028B10BD00BFFEE7000010B5024827
:1043E000FCF78EFE10BD0000F425002010B5024839
:1043F000FCF7BFFE10BD0000F425002010B50446F8
:104400000848806D20F400000649886503210648AD
:10441000FCF79AFC4820FDF713F94920FDF710F945
:1044200010BD0000001002400008004810B5A8B000
:1044300004464FF4807001900002179001A8FDF728
:10444000F7FE08B100BFFEE700BF2248C06C40F095
:1044500004002049C8640846C06C00F004000090C5
:1044600000BF00BF0320239012202490012025903C
:10447000032026900420279023A91748FCF708FD65
:1044800000BF1448806D40F400001249886508465A
:10449000806D00F40000009000BF00BF0846806BF4
:1044A00040F4000088630846806B20F400008863B5
:1044B000002211464820FDF7DEF84820FDF7CEF82F
:1044C000002211464920FDF7D6F84920FDF7C6F82D
:1044D00028B010BD001002400008004870B5054625
:1044E000AC6A2068406840F40040216848600020C1
:1044F000A16B8863E16B886394F84100602806D162
:10450000202084F841002046FCF7DAFD02E0204636
:10451000FCF73DFE70BD10B503460A46002102F0CF
:10452000010048B141F0420193F8410000F0280039
:10453000282801D041F0B00102F00200022809D180
:1045400041F0440193F8410000F02800282801D0F0
:1045500041F0B00102F00400042801D141F0B8019B
:1045600002F01100112801D141F0900102F0120077
:10457000122801D141F0200102F01200122801D1CD
:1045800041F040011868006888431C6820600020E2
:1045900010BD01688969C1F3400111B100210268B1
:1045A00091620168896901F0010129B9016889698D
:1045B00041F001010268916170472DE9F04704461E
:1045C0008946002700250026A84694F8410000F0FF
:1045D0002800282850D120688069C0F3004720684F
:1045E000806900F47E00050C20688068C0F309062D
:1045F0002068C06800F0FE08E06802282DD105F0B0
:104600000600062101EAE611884216D13546A06C63
:10461000401CA064A06C022836D10020A0640820B1
:104620002168C86100BF002084F8400000BF2A460E
:1046300039462046FCF745FD26E045460421204644
:10464000FFF769FF00BF002084F8400000BF2A4642
:1046500039462046FCF735FD16E004212046FFF7D9
:104660005AFF00BF002084F8400000BF2A463946A8
:104670002046FCF726FD07E008202168C86100BF3E
:10468000002084F8400000BFBDE8F08770B5044604
:104690000D46002084F842003F48E062002060851B
:1046A000606C2843606494F84100282807D094F88F
:1046B0004100292803D094F841002A280BD1032176
:1046C0002046FFF728FF282084F8410000202063BF
:1046D000324860630DE007212046FFF71CFF94F885
:1046E0004100602802D0202084F84100002020638F
:1046F00060632068006800F48040B0F5804F15D1F9
:104700002068006820F48040216808602448A16B7C
:10471000886300BF002084F8400000BFA06BFCF756
:10472000A3FAF8B1A06B816B884734E02068006879
:1047300000F40040B0F5004F15D12068006820F467
:104740000040216808601648E16B886300BF0020C4
:1047500084F8400000BFE06BFCF786FA10B1E06B14
:10476000816B884717E094F8410060280BD1202026
:1047700084F8410000BF002084F8400000BF2046BC
:10478000FCF79EFC07E000BF002084F8400000BF5B
:104790002046FCF7FCFC70BD0000FFFF514B0008F9
:1047A000DD44000870B504460D461848E06200205C
:1047B0002063202084F84100002084F842006063D8
:1047C00005F0040090B12068406AC1B2626A501CD2
:1047D00060621170208D48B1208D401E2085608D53
:1047E000401E6085606C40F0040060640721204634
:1047F000FFF791FE10202168C86100BF002084F8F7
:10480000400000BF2046FCF729FD70BD0000FFFFFF
:1048100070B504460D4620202168C8610820216833
:10482000C86107212046FFF776FE2068406840F403
:10483000004021684860206840683F49084021687E
:1048400048602046FFF7A5FE2068006800F480401D
:10485000B0F5804F06D02068006800F40040B0F545
:10486000004F0BD194F84100212803D1A06B0068C0
:10487000406802E0E06B006840686085608D18B1B8
:10488000606C40F00400606405F0040090B12068A2
:10489000406AC1B2626A501C60621170208D48B1DA
:1048A000208D401E2085608D401E6085606C40F02C
:1048B000040060640020206384F842006063606C40
:1048C00060B1616C2046FFF7E1FE94F841002828B2
:1048D00031D129462046FFF765FF2CE0E06A10F54C
:1048E000803F0DD01548E062202084F8410000BFD1
:1048F000002084F8400000BF2046FCF7AFFC1AE01F
:1049000094F8410022280BD1202084F8410000BFF8
:10491000002084F8400000BF2046FCF764FE0AE057
:10492000202084F8410000BF002084F8400000BF30
:104930002046FCF759FE70BD00E800FE0000FFFFB6
:1049400010B50446002084F8420094F8410029285C
:1049500011D1282084F84100212020630121204624
:10496000FFF7D9FD00BF002084F8400000BF2046BB
:10497000FCF73AFE14E094F841002A2810D12820D0
:1049800084F841002220206302212046FFF7C3FD66
:1049900000BF002084F8400000BF2046FCF723FE43
:1049A00010BD000070B504460D46164620688069AB
:1049B000C0F30010002837D013E0681C88B125B17F
:1049C000FCF778FB801BA8420BD9202084F841001B
:1049D000002084F8420000BF84F8400000BF03209C
:1049E00070BD20688069C0F340100028E5D0102019
:1049F0002168C86120202168C8612046FFF7C9FDF1
:104A000020684068094908402168486004206064C3
:104A1000202084F84100002084F8420000BF84F880
:104A2000400000BF0120DBE70020D9E700E800FEDE
:104A30002DE9F8430446894615461E46DDE9087807
:104A40001E48F2B2002349460090204600F020F9AB
:104A500042463946204600F08BF938B1606C042894
:104A600002D10120BDE8F8830320FBE7012E03D12A
:104A7000E8B22168886213E0C5F3072021688862E4
:104A800042463946204600F073F930B1606C042884
:104A900001D10120E6E70320E4E7E8B2216888625B
:104AA0003B46002240212046CDF8008000F00AF964
:104AB00008B10320D6E70020D4E7000000200080E2
:104AC0002DE9F8430446894615461E46DDE9087877
:104AD0001E48F2B2C30249460090204600F0D8F8C2
:104AE00042463946204600F043F938B1606C04284C
:104AF00002D10120BDE8F8830320FBE7012E03D19A
:104B0000E8B22168886213E0C5F307202168886253
:104B100042463946204600F02BF930B1606C04283B
:104B200001D10120E6E70320E4E7E8B221688862CA
:104B30003B46002280212046CDF8008000F0C2F8DC
:104B400008B10320D6E70020D4E700000020008051
:104B500070B504460D46164600BF94F84000012883
:104B600001D1022070BD012084F8400000BF05F093
:104B7000100098B306F0100080B3608D30BBE06A7F
:104B8000B0F1007F03D0E06AB0F1007F08D194F863
:104B90004100282804D129462046FFF703FE66E09D
:104BA000E06A10F5803F0DD094F84100292809D122
:104BB00010202168C8612046FFF7EBFC2046FFF774
:104BC000BFFE54E010202168C86150E01020216829
:104BD000C861606C40F00400606448E0FFE705F0E5
:104BE0000400D8B106F00400C0B1608D60B1206847
:104BF000406AC1B2626A501C60621170208D401E12
:104C00002085608D401E6085608D30BBE06A10F5A8
:104C1000803F2CD02046FFF793FE28E005F00800E7
:104C200038B106F0080020B129462046FFF7C5FC40
:104C30001DE005F0020080B106F0020068B1608D51
:104C400060B1616A481C6062087821688862608D82
:104C5000401E6085208D401E208508E0E06AB0F18E
:104C6000807F01D0E06A10B92046FFF769FE05F0A9
:104C7000200030B106F0200018B129462046FFF789
:104C8000C7FD00BF002084F8400000BF00BF69E7F7
:104C9000F0B5059C05686D684FF4806606EA5456C9
:104CA00066F0FC2646F4C046B543C1F309064FF44E
:104CB0007F0707EA02473E431E4326433543066803
:104CC0007560F0BD2DE9F04104460E4617461D46BD
:104CD000DDF8188015E0681C98B12DB1FCF7EAF9F1
:104CE000A0EB0800A8420CD9202084F84100002045
:104CF00084F8420000BF84F8400000BF0320BDE8F4
:104D0000F081206880693040B04201D1012000E08C
:104D10000020B842DFD00020F1E770B504460D4610
:104D200016461DE0324629462046FFF73BFE08B1F5
:104D3000012070BD25B1FCF7BDF9801BA8420FD939
:104D4000606C40F020006064202084F84100002066
:104D500084F8420000BF84F8400000BF0320E8E769
:104D600020688069C0F340100028DBD00020E0E715
:104D700070B504460D4616461FE0324629462046C9
:104D8000FFF710FE08B1012070BD681CA8B125B165
:104D9000FCF790F9801BA8420FD9606C40F020000E
:104DA0006064202084F84100002084F8420000BFA5
:104DB00084F8400000BF0320E6E720688069C0F364
:104DC00040000028D9D00020DEE7000030B5C3B095
:104DD00004460F4804700020FBF70CFC30200090C4
:104DE00032230CA20DA1019003A803F0F1F80546AF
:104DF000294603A8FBF768FD34210548FBF7F9F9BC
:104E000000F05AF80020024981F82C0043B030BD70
:104E1000C002002053544C424C4531000D0A5354FB
:104E20004D6963726F656C656374726F6E696373ED
:104E30002025733A0D0A0956657273696F6E202535
:104E4000632E25632E25630D0A0953656E736F72F9
:104E500054696C650D0A000010B588B013480068ED
:104E600042F21071B0FBF1F0441E11481149086084
:104E70004FF6FF710F48C1604460002101618160FD
:104E8000FEF728FD08B1FBF7C3FE30200190022099
:104E9000039041F288300290002201A90548FEF7F4
:104EA000B4FC08B1FBF7B4FE08B010BD80000020D0
:104EB000002C01403002002010B5C0B005210020B8
:104EC000FBF796FAD8B944A1684603F081F8044686
:104ED00021466846FBF7F8FC01204549886145A159
:104EE000684603F075F8044621466846FBF7ECFC7B
:104EF0003F488068401C3E4988600120C86003210B
:104F00000120FBF775FAE0B941A1684603F060F8AB
:104F1000044621466846FBF7D7FC35488068401CAC
:104F20003349886001213248016140A1684603F09D
:104F30004FF8044621466846FBF7C6FC01202C4981
:104F400048612B48806970B104210020FBF7ECF91F
:104F500048B93CA1684603F03BF804462146684640
:104F6000FBF7B2FC00BF2248C06870B101210020ED
:104F7000FBF7DAF948B93AA1684603F029F8044684
:104F800021466846FBF7A0FC00BF1948006970B1D4
:104F900001210846FBF7C8F948B939A1684603F072
:104FA00017F8044621466846FBF78EFC00BF104800
:104FB000406970B102210120FBF7B6F948B938A168
:104FC000684603F005F8044621466846FBF77CFC7A
:104FD00000BF40B010BD00004F4B2048756D6964A4
:104FE0006974792053656E736F720A0D00000000BA
:104FF000C00200204F4B2054656D7065726174755E
:1050000072652053656E736F72310A0D00000000E7
:105010004F4B2054656D70657261747572652053D5
:10502000656E736F72320A0D000000004F4B205006
:10503000726573737572652053656E736F720A0DB6
:1050400000000000456E61626C65642048756D6902
:10505000646974792053656E736F720A0D000000E5
:10506000456E61626C65642054656D706572617433
:105070007572652053656E736F72310A0D00000002
:10508000456E61626C65642054656D706572617413
:105090007572652053656E736F72320A0D000000E1
:1050A000456E61626C6564205072657373757265DC
:1050B0002053656E736F720A0D00000010B5202139
:1050C0000348FBF7E9FF012800D110BD0020FCE7F1
:1050D0000008004870B5C2B00446FBF7EBFFC0F310
:1050E000C7008DF80401FBF7E5FFC00A8DF8050144
:1050F0008DF8064141A8032300220090144801883E
:105100001448008803F0AEFB0546002D1DD0124860
:105110000088C0F3402058B110A1174802F058FF92
:105120001649086008460178134801F033F909E090
:1051300013A101A802F04CFF0646314601A8FBF777
:10514000C3FB00BF472042B070BD0020FBE700005A
:105150002A00002026000020000000204572726F07
:1051600072205570646174696E67204C4544204319
:105170006861720D0A000000300100200400002068
:105180004572726F72205570646174696E67205445
:10519000656D7020436861720D0A000070B58CB0B7
:1051A000044600250220079000208DF82000434887
:1051B00005904348069043480A9043480990434865
:1051C0000B9005A9424800F0DDF908B1ED1F72E02F
:1051D00004A93F4800F0C8F910B16FF006056AE075
:1051E0009DF81000B12802D06FF0060563E00121A0
:1051F00037481C3004F099F908B16FF006054FF4F8
:105200007A70FBF75DFD012632461021304800F030
:105210001BFB08B16FF0060569462D4800F084F8C5
:105220009DF800009DF8011040EA41009DF8021031
:1052300040EA8100274948602548274948602748B7
:105240002749486004F00100A0B19DF80000012842
:1052500010D1244924484268244840F822101E4AAC
:1052600050681F4A52681168884710B16FF00405F2
:1052700000E0002504F0020002281CD19DF8010086
:10528000012818D11A4918488268184840F8221095
:10529000114A5068124A52681168884710B16FF07D
:1052A000040500E00025012109481C3004F088F9BC
:1052B00008B16FF0060528460CB070BDA1060008C5
:1052C0008D06000809070008A50700081905000851
:1052D000C82500202401002000010020BC0000207F
:1052E0001C010020E0000020080100209025002083
:1052F000CC00002010B5044694F8280001280DD1F8
:10530000204600F0BBF810B14FF0FF3010BD204632
:1053100000F022FA10B14FF0FF30F7E7002084F8D8
:10532000280000BFF2E7000002460020887001203C
:10533000487008700020C8709FED060A81ED010AD0
:105340009FED050A81ED020A9FED030A81ED030A34
:10535000704700000000000000009642F8B50546C6
:105360000C460026694605F11C0004F0F6F808B169
:10537000701EF8BD9DF80000062822D2DFE800F07C
:1053800003080D12171C9FED120A84ED000A1BE0A2
:10539000B7EE000A84ED000A16E0B2EE040A84EDCE
:1053A000000A11E0B3EE090A84ED000A0CE09FED5B
:1053B000090A84ED000A07E09FED070A84ED000A60
:1053C00002E04FF0FF3600BF00BF3046D1E70000DB
:1053D00000000000000048420000964210B504465C
:1053E00094F8280030B9204600F009F810B14FF0C9
:1053F000FF3010BD012084F828000020F9E710B527
:105400000446012104F11C0004F00AF910B14FF028
:10541000FF3010BD002104F11C0004F0AFF810B102
:105420004FF0FF30F5E7022104F11C0004F0E0F832
:1054300010B14FF0FF30ECE7012104F11C0004F043
:105440005CF810B14FF0FF30E3E7A06840B90021ED
:1054500004F11C0004F039F858B14FF0FF30D8E7E0
:10546000012104F11C0004F030F810B14FF0FF30BE
:10547000CFE7032084F82B000020CAE710B50446CC
:1054800094F8290008B9002010BD94F82A0090B9BA
:1054900004F12B0104F11C0004F05FF810B14FF08F
:1054A000FF30F1E7002104F11C0004F067F810B1AF
:1054B0004FF0FF30E8E7002084F8290000BFE3E761
:1054C00010B5044694F82900012801D1002010BD30
:1054D00094F82B1004F11C0004F050F810B14FF0B8
:1054E000FF30F4E7012084F829000020EFE770B5D1
:1054F00004460D4629462046FFF730FF70BD0000E8
:1055000038B505460C4600200090694605F11C00A0
:1055100004F09EF810B14FF0FF3038BD9DED000A49
:10552000B8EEC00ADFED030A80EE201A84ED001AFF
:105530000020F2E70000804510B52DED028B0446F7
:10554000B0EE408A94F82900012807D1B0EE480A4D
:10555000204600F0BBF8BDEC028B10BDB0EE480A4F
:10556000204600F087F8F6E770B504460D46294658
:1055700004F11C0004F01AF810B14FF0FF3070BDB8
:105580000020FCE72DE9F04104460D4600260CB949
:10559000761E2CE02868206068686060A868A060BB
:1055A000287B20732869206168696061A869A0610F
:1055B000104921621048E0616462206810B94FF020
:1055C000FF3614E02068804710B14FF0FF360EE040
:1055D000A06802280BD194F8280040B901273A4668
:1055E0001021204600F030F900B1BE1E00BF304649
:1055F000BDE8F081855E0008777F000872B602681A
:10560000126842F0400203681A60BFF34F8FBFF385
:105610004F8F0268126822F0400203681A6062B677
:1056200000BF0268926802F00102002AF9D0026805
:10563000127B0A7000BF0268926802F08002802A22
:10564000F9D0704700BF0268926802F00202022A95
:10565000F9D10268117300BF0268926802F4C05267
:10566000002AF9D100BF0268926802F08002802A05
:10567000F9D070470146F7EE000AB4EEE00AF1EE09
:1056800010FA01D801201BE0F2EE040AB4EEE00AA1
:10569000F1EE10FA01D8022012E0F3EE090AB4EE9E
:1056A000E00AF1EE10FA01D8032009E0DFED060A66
:1056B000B4EEE00AF1EE10FA01D8042000E0052073
:1056C00081F82B00002070470000484270B52DED96
:1056D000028B0446B0EE408AB7EE000AB4EEC08AF0
:1056E000F1EE10FA01D801201BE0B2EE040AB4EE8C
:1056F000C08AF1EE10FA01D8022012E0B3EE090AD6
:10570000B4EEC08AF1EE10FA01D8032009E09FED53
:10571000110AB4EEC08AF1EE10FA01D8042000E0BC
:1057200005200546294604F11C0003F027FF20B19F
:105730004FF0FF30BDEC028B70BD04F12B0104F182
:105740001C0003F00AFF10B14FF0FF30F2E7002019
:10575000F0E700000000484210B5044694F82A0023
:1057600008B9002010BD94F8290090B904F12B016C
:1057700004F11C0003F0F1FE10B14FF0FF30F1E72F
:10578000002104F11C0003F0F9FE10B14FF0FF30CE
:10579000E8E7002084F82A0000BFE3E710B50446DC
:1057A00094F82A00012801D1002010BD94F82B1094
:1057B00004F11C0003F0E2FE10B14FF0FF30F4E7FB
:1057C000012084F82A000020EFE770B504460D465A
:1057D00029462046FFF7C2FD70BD000038B50546DA
:1057E0000C4600200090694605F11C0003F048FFBC
:1057F00010B14FF0FF3038BDBDF9000000EE100AC7
:10580000B8EEC00ADFED030A80EE201A84ED001A1C
:105810000020F0E70000C84210B52DED028B0446D1
:10582000B0EE408A94F82A00012807D1B0EE480A69
:105830002046FFF74BFFBDEC028B10BDB0EE480ACF
:105840002046FFF717FFF6E737B504460D4601235C
:1058500002AA294604F11C0003F01CFF10B14FF00E
:10586000FF303EBD0020FCE7F0EE400A90ED020A5A
:1058700090ED011A20EE010A90ED001AD0ED031A06
:1058800001EE610A90ED031AD0ED011A31EE611AB2
:1058900001EE200A90ED021AD0ED001A71EE611AA5
:1058A00080EE211AB0EE410A7047000070B5044640
:1058B000002507482060074860603321A16001216E
:1058C000E1602046FBF768FC00B10125284670BD69
:1058D000005C00404115801070B504460025114859
:1058E00020604FF4827060600021A1604FF4E0619D
:1058F000E1600021216161614FF40071A161182113
:10590000E161002121626162A1620721E16200215F
:105910002163082161632046FDF79FFB00B101254B
:10592000284670BD0030014070B5044600251A4875
:1059300020604FF4827060604FF40041A1604FF42A
:10594000E061E16002212161012161614902A161FF
:105950003021E161002121626162A1620721E162DF
:105960000021216361632046FDF777FB00B101252B
:105970000520FBF7A5F92068006840F48040216805
:1059800008600520FBF79CF92068006840F04000A3
:1059900021680860284670BD0038004000BFFEE75F
:1059A000704700F01F02012191404209920002F16C
:1059B000E022C2F80011704702480068C0F30220DC
:1059C000704700000CED00E010B5002807DA0A0768
:1059D000140E054A00F00F031B1FD45403E00A07FE
:1059E000130E024A135410BD18ED00E000E400E06D
:1059F00010B50248FBF7C8FF10BD0000D01D002005
:105A00002DE9F84F07460E46D7F800800024002500
:105A1000A146A246C6EBC60107F13C0000EB81049B
:105A2000D4E90501451AA068A84200D2A568E81C7F
:105A3000C11700EB91714FEAA1091AE0D4E9050101
:105A4000451AA068A84200D2A568E81CC11700EB5F
:105A500091714FEAA109387CABB2F2B20090404696
:105A6000E16802F04EFAE0682844E060A06928444A
:105A7000A06108F5106000EB4610806980B24845CF
:105A800006D9D4E90510884202D260690028D5D130
:105A9000002D0CDC012000FA06FA40F6340050F824
:105AA000080020EA0A0040F6340141F8080000200E
:105AB00000F000B818BCBDE8E08F70472DE9F04158
:105AC00004460E46002700255B48C06800F003002E
:105AD00090B15948C06800F003002168884209D19C
